{
  "contractName": "SmartEscrow",
  "abi": [
    {
      "constant": true,
      "inputs": [
        {
          "name": "",
          "type": "uint256"
        }
      ],
      "name": "AllOrders",
      "outputs": [
        {
          "name": "",
          "type": "address"
        }
      ],
      "payable": false,
      "stateMutability": "view",
      "type": "function"
    },
    {
      "constant": true,
      "inputs": [
        {
          "name": "",
          "type": "address"
        }
      ],
      "name": "orders",
      "outputs": [
        {
          "name": "price",
          "type": "uint256"
        },
        {
          "name": "amount",
          "type": "uint256"
        },
        {
          "name": "TokenA",
          "type": "address"
        },
        {
          "name": "TokenB",
          "type": "address"
        }
      ],
      "payable": false,
      "stateMutability": "view",
      "type": "function"
    },
    {
      "inputs": [
        {
          "name": "_kyber",
          "type": "address"
        }
      ],
      "payable": false,
      "stateMutability": "nonpayable",
      "type": "constructor"
    },
    {
      "constant": false,
      "inputs": [
        {
          "name": "_tokenA",
          "type": "address"
        },
        {
          "name": "_tokenB",
          "type": "address"
        },
        {
          "name": "_amount",
          "type": "uint256"
        }
      ],
      "name": "createOrder",
      "outputs": [],
      "payable": false,
      "stateMutability": "nonpayable",
      "type": "function"
    },
    {
      "constant": true,
      "inputs": [
        {
          "name": "_tokenA",
          "type": "address"
        },
        {
          "name": "_tokenB",
          "type": "address"
        },
        {
          "name": "_value",
          "type": "uint256"
        }
      ],
      "name": "getValue",
      "outputs": [
        {
          "name": "",
          "type": "uint256"
        }
      ],
      "payable": false,
      "stateMutability": "view",
      "type": "function"
    },
    {
      "constant": false,
      "inputs": [
        {
          "name": "_tokenA",
          "type": "address"
        },
        {
          "name": "_tokenB",
          "type": "address"
        }
      ],
      "name": "execudeOrder",
      "outputs": [],
      "payable": false,
      "stateMutability": "nonpayable",
      "type": "function"
    }
  ],
  "bytecode": "0x608060405234801561001057600080fd5b50604051602080610549833981016040525160028054600160a060020a031916600160a060020a039092169190911790556104f9806100506000396000f30060806040526004361061006c5763ffffffff7c01000000000000000000000000000000000000000000000000000000006000350416636d13eed081146100715780637ac5749a146100a55780639a5d6a4a146100ce578063d977b282146100f8578063f40e847114610134575b600080fd5b34801561007d57600080fd5b50610089600435610184565b60408051600160a060020a039092168252519081900360200190f35b3480156100b157600080fd5b506100cc600160a060020a03600435811690602435166101ac565b005b3480156100da57600080fd5b506100cc600160a060020a03600435811690602435166044356102b7565b34801561010457600080fd5b50610122600160a060020a03600435811690602435166044356103ee565b60408051918252519081900360200190f35b34801561014057600080fd5b50610155600160a060020a0360043516610499565b604080519485526020850193909352600160a060020a0391821684840152166060830152519081900360800190f35b600180548290811061019257fe5b600091825260209091200154600160a060020a0316905081565b33600090815260208190526040812060018101548392906101d090869085906103ee565b604080517fa9059cbb000000000000000000000000000000000000000000000000000000008152336004820152602481018390529051919250600160a060020a0385169163a9059cbb916044808201926020929091908290030181600087803b15801561023c57600080fd5b505af1158015610250573d6000803e3d6000fd5b505050506040513d602081101561026657600080fd5b5050336000908152602081905260408120818155600181019190915560028101805473ffffffffffffffffffffffffffffffffffffffff199081169091556003909101805490911690555050505050565b604080517f23b872dd0000000000000000000000000000000000000000000000000000000081523360048201523060248201526044810183905290518491600091600160a060020a038416916323b872dd91606480830192602092919082900301818787803b15801561032957600080fd5b505af115801561033d573d6000803e3d6000fd5b505050506040513d602081101561035357600080fd5b5050336000818152602081905260408120600a815560018082019690965560028101805473ffffffffffffffffffffffffffffffffffffffff19908116600160a060020a039a8b16179091556003909101805482169790981696909617909655835480850185559390955250507fb10e2d527612073b26eecdfd717e6a320cf44b4afac2b0732d9fcbe2b7fa0cf60180549091169091179055565b600254604080517f809a9e55000000000000000000000000000000000000000000000000000000008152600160a060020a0386811660048301528581166024830152604482018590528251600094859492169263809a9e5592606480830193919282900301818787803b15801561046457600080fd5b505af1158015610478573d6000803e3d6000fd5b505050506040513d604081101561048e57600080fd5b505195945050505050565b600060208190529081526040902080546001820154600283015460039093015491929091600160a060020a039182169116845600a165627a7a72305820eb1ba56abdb2f35b878fa92300a29895986b1f5a86873f1cb8c68109dfbf56800029",
  "source": "pragma solidity ^0.4.24;\n\nimport \"openzeppelin-solidity/contracts/token/ERC20/ERC20.sol\";\nimport \"./KyberNetworkInterface.sol\";\n\ncontract SmartEscrow {\n\nstruct Orders{\n  uint256 price;\n  uint256 amount;\n  address TokenA;\n  address TokenB;\n}\n\nmapping(address => Orders) public orders;\n\naddress[] public AllOrders;\n\n// Kyber helps to figure out the ratio beetwen A and B token\nKyberNetworkInterface kyber;\n\nconstructor(address _kyber) public {\n  kyber = KyberNetworkInterface(_kyber);\n}\n\n\nfunction createOrder(address _tokenA, address _tokenB, uint256 _amount) public {\n  ERC20 tokenA = ERC20(_tokenA);\n\n  tokenA.transferFrom(msg.sender, address(this), _amount);\n\n  var order = orders[msg.sender];\n\n  //uint256 _value = getValue(_tokenA, _tokenB, _amount);\n  //order.price = _value;\n  order.price = 10;\n  order.amount = _amount;\n  order.TokenA = _tokenA;\n  order.TokenB = _tokenB;\n\n\n  AllOrders.push(msg.sender) -1;\n}\n\nfunction getValue(address _tokenA, address _tokenB, uint256 _value) public view returns(uint256){\n  (uint256 expectedRate, ) = kyber.getExpectedRate(ERC20(_tokenA), ERC20(_tokenB), _value);\n\n  return expectedRate;\n}\n\n// Not finished\nfunction execudeOrder(address _tokenA, address _tokenB) public {\n\n  ERC20 token = ERC20(_tokenB);\n\n  var order = orders[msg.sender];\n\n  uint256 _value = getValue(_tokenA, _tokenB, order.amount);\n\n  token.transfer(msg.sender, _value);\n\n  //orders[msg.sender] = 0;\n  delete orders[msg.sender];\n}\n\n}\n",
  "sourcePath": "/home/ruslan/CoTrader-Projects/SmartEscrow/contracts/SmartEscrow.sol",
  "compiler": {
    "name": "solc",
    "version": "0.4.24+commit.e67f0147.Emscripten.clang"
  },
  "schemaVersion": "2.0.1",
  "updatedAt": "2019-01-27T07:16:09.737Z"
}